:060000000A128A11472FCD
:100E8C0032340A128A1146270A128A11F900830198
:100E9C000A128A11812F7308720471047004031DE5
:100EAC00582F592F5B2F802F802F0130F4000030EA
:100EBC00F5000030F6000030F7007408F0027508F9
:100ECC00031C750F6A2F6B2FF1027608031C760F2B
:100EDC00702F712FF2027708031C770F762F772F64
:100EEC00F3027308720471047004031D7E2F7F2FAC
:100EFC005B2F802F08000630831603139F00FF30F2
:100F0C0085008601C03087000C30831203139700D4
:100F1C00FF308316031392000530831203139200E3
:100F2C009501061186109A2F8312031385189F2F93
:100F3C00A02FA42F9501061186109A2F0519A72F03
:100F4C00A82FBE2FAA2FAA2F051DAD2FAE2FAA2F6B
:100F5C00AF2F7908950004308606061DB62FBA2FE0
:100F6C00831203138614BD2F8312031386109A2F3A
:100F7C008519C12FC22FDD2F7908FF3A0319C72F0E
:100F8C00C82FCD2F0130F8007808F907CD2F79083C
:100F9C0095000030F3000030F2001330F10088307F
:100FAC00F0000A128A1151270A128A119A2F051A77
:100FBC00E02FE12F9A2F7908031DE52FE82F013040
:100FCC00F902E82F790895000030F3000030F200A8
:100FDC001330F1008830F0000A128A1151270A12DE
:100FEC008A119A2F9A2F9A2F9A2F9A2F9A2F0A1288
:040FFC008A1100282E
:02400E00323F3F
:00000001FF
