:060000000A128A11F82F1C
:100F0A003234730872047104700403190800013042
:100F1A00F4000030F5000030F6000030F7007408E5
:100F2A00F0027508031C750F9B2F9C2FF10276089F
:100F3A00031C760FA12FA22FF2027708031C770F4A
:100F4A00A72F862FF302862F0630831603139F00DE
:100F5A00FF3085008601C03087000C3083120313EE
:100F6A009700FF3083160313920005308312031390
:100F7A00920095010611CF2F051DC12F7908950002
:100F8A00043086060619CD2F831203138614E82F20
:100F9A00831203138610E82F7908FF3A0319D92F11
:100FAA000130F8007808F907790895000030F30055
:100FBA000030F2001330F1008830F0000A128A1172
:100FCA0086270A128A1183120313851CBE2F051D58
:100FDA00C12F851DD12F051AE82F79080319D92F9A
:100FEA000130F902D92F0A128A118527F9008301E3
:060FFA000A128A11A92F62
:02400E0032FF7F
:00000001FF
